{
  "transactions": [
    {
      "hash": "0x5d5272bb0d247d41bd7443fcce82d4d6f9f44107c6557c7729e071e9526ec536",
      "transactionType": "CALL",
      "contractName": null,
      "contractAddress": "0xf00df8031e2e20f5334a3a4a0fbaad156b6e58c7",
      "function": "mint(bytes,uint256,address)",
      "arguments": [
        "0xeb3d55a8155dc3beb09e8f70712a6f0d5ea81a8fdfca4191bf4c48c0b7a70433414e077e72e328e36a5e3bada66bc908c585f47f8703edd1c117c20b4f0710b61b",
        "100",
        "0x2dC8Bc53ECf1A59188e4c7fAB0c7bB57339F85e7"
      ],
      "transaction": {
        "from": "0x2dc8bc53ecf1a59188e4c7fab0c7bb57339f85e7",
        "to": "0xf00df8031e2e20f5334a3a4a0fbaad156b6e58c7",
        "gas": "0x57e6ee0",
        "value": "0x0",
        "input": "0x347d6c78000000000000000000000000000000000000000000000000000000000000006000000000000000000000000000000000000000000000000000000000000000640000000000000000000000002dc8bc53ecf1a59188e4c7fab0c7bb57339f85e70000000000000000000000000000000000000000000000000000000000000041eb3d55a8155dc3beb09e8f70712a6f0d5ea81a8fdfca4191bf4c48c0b7a70433414e077e72e328e36a5e3bada66bc908c585f47f8703edd1c117c20b4f0710b61b00000000000000000000000000000000000000000000000000000000000000",
        "nonce": "0x7",
        "chainId": "0x4cb2f"
      },
      "additionalContracts": [],
      "isFixedGasLimit": false
    }
  ],
  "receipts": [
    {
      "status": "0x1",
      "cumulativeGasUsed": "0x0",
      "logs": [
        {
          "address": "0xf00df8031e2e20f5334a3a4a0fbaad156b6e58c7",
          "topics": [
            "0xef5eff7c9be9766c69844770034357649f917b2cf6766d70d7a773b4f9157aed",
            "0x0000000000000000000000002dc8bc53ecf1a59188e4c7fab0c7bb57339f85e7"
          ],
          "data": "0x00000000000000000000000000000000000000000000000000000000000000600000000000000000000000000000000000000000000000000000000000000064000000000000000000000000f047623317276fcde0b34b5b1146d7eca20d15c00000000000000000000000000000000000000000000000000000000000000041eb3d55a8155dc3beb09e8f70712a6f0d5ea81a8fdfca4191bf4c48c0b7a70433414e077e72e328e36a5e3bada66bc908c585f47f8703edd1c117c20b4f0710b61b00000000000000000000000000000000000000000000000000000000000000",
          "blockHash": "0xb55f7b2e0367714bdedf44491dc401fc383de5ecd698fe2eb9ac3894bef51d41",
          "blockNumber": "0x195835",
          "transactionHash": "0x5d5272bb0d247d41bd7443fcce82d4d6f9f44107c6557c7729e071e9526ec536",
          "transactionIndex": "0x0",
          "logIndex": "0x0",
          "removed": false
        },
        {
          "address": "0xd2cf3de2aeef4b85bea49a88124dbb67dff73980",
          "topics": [
            "0xddf252ad1be2c89b69c2b068fc378daa952ba7f163c4a11628f55a4df523b3ef",
            "0x0000000000000000000000000000000000000000000000000000000000000000",
            "0x0000000000000000000000002dc8bc53ecf1a59188e4c7fab0c7bb57339f85e7"
          ],
          "data": "0x0000000000000000000000000000000000000000000000000000000000000064",
          "blockHash": "0xb55f7b2e0367714bdedf44491dc401fc383de5ecd698fe2eb9ac3894bef51d41",
          "blockNumber": "0x195835",
          "transactionHash": "0x5d5272bb0d247d41bd7443fcce82d4d6f9f44107c6557c7729e071e9526ec536",
          "transactionIndex": "0x0",
          "logIndex": "0x1",
          "removed": false
        }
      ],
      "logsBloom": "0x08000000000000000000000000000000000000000000000040802000000040000000000000000000000000000000000020000000000000000000000000000080000010000000000024000008000100000001000000000000000100000000000000000000020002000000000000000900000020000000000010000010000000400000003000000400400000000000000000000000000000000000000040000000000000800010000000000000000000800000000000000020000200000000000000000002200002000000000000000000000004000020000004000000000220000000000000000000000400000000000000000000008000000000000000000000",
      "type": "0x2",
      "transactionHash": "0x5d5272bb0d247d41bd7443fcce82d4d6f9f44107c6557c7729e071e9526ec536",
      "transactionIndex": "0x0",
      "blockHash": "0xb55f7b2e0367714bdedf44491dc401fc383de5ecd698fe2eb9ac3894bef51d41",
      "blockNumber": "0x195835",
      "gasUsed": "0xd9fe30",
      "effectiveGasPrice": "0x1206f3574",
      "from": "0x2dc8bc53ecf1a59188e4c7fab0c7bb57339f85e7",
      "to": "0xf00df8031e2e20f5334a3a4a0fbaad156b6e58c7",
      "contractAddress": null,
      "root": "0x0000000000000000000000000000000000000000000000000000000000000000"
    }
  ],
  "libraries": [],
  "pending": [],
  "returns": {},
  "timestamp": 1717155844,
  "chain": 314159,
  "commit": "32b8589"
}