{
  "transactions": [
    {
      "hash": null,
      "transactionType": "CALL",
      "contractName": null,
      "contractAddress": "0x815482f3cdd716f6dbefa7ff7e5050a79e841de9",
      "function": "startChat(address,string,string,string[])",
      "arguments": [
        "0x2dC8Bc53ECf1A59188e4c7fAB0c7bB57339F85e7",
        "\"You help users identify animals in images\"",
        "\"what animal is in these images\"",
        "[\"https://www.pexels.com/photo/curious-staffordshire-bull-terrier-17017823/\", \"https://www.pexels.com/photo/short-coated-dog-on-riverside-5158655/\", \"https://www.pexels.com/photo/a-staffordshire-bull-terrier-15020868/\"]"
      ],
      "transaction": {
        "from": "0x2dc8bc53ecf1a59188e4c7fab0c7bb57339f85e7",
        "to": "0x815482f3cdd716f6dbefa7ff7e5050a79e841de9",
        "gas": "0x115dd7",
        "value": "0x0",
        "input": "0xcbc305e00000000000000000000000002dc8bc53ecf1a59188e4c7fab0c7bb57339f85e7000000000000000000000000000000000000000000000000000000000000008000000000000000000000000000000000000000000000000000000000000000e000000000000000000000000000000000000000000000000000000000000001200000000000000000000000000000000000000000000000000000000000000029596f752068656c70207573657273206964656e7469667920616e696d616c7320696e20696d616765730000000000000000000000000000000000000000000000000000000000000000000000000000000000000000000000000000000000001e7768617420616e696d616c20697320696e20746865736520696d6167657300000000000000000000000000000000000000000000000000000000000000000003000000000000000000000000000000000000000000000000000000000000006000000000000000000000000000000000000000000000000000000000000000e00000000000000000000000000000000000000000000000000000000000000160000000000000000000000000000000000000000000000000000000000000004968747470733a2f2f7777772e706578656c732e636f6d2f70686f746f2f637572696f75732d73746166666f726473686972652d62756c6c2d746572726965722d31373031373832332f0000000000000000000000000000000000000000000000000000000000000000000000000000000000000000000000000000000000004368747470733a2f2f7777772e706578656c732e636f6d2f70686f746f2f73686f72742d636f617465642d646f672d6f6e2d7269766572736964652d353135383635352f0000000000000000000000000000000000000000000000000000000000000000000000000000000000000000000000000000000000000000000000004368747470733a2f2f7777772e706578656c732e636f6d2f70686f746f2f612d73746166666f726473686972652d62756c6c2d746572726965722d31353032303836382f0000000000000000000000000000000000000000000000000000000000",
        "nonce": "0x1",
        "chainId": "0xaa289"
      },
      "additionalContracts": [],
      "isFixedGasLimit": false
    }
  ],
  "receipts": [],
  "libraries": [],
  "pending": [],
  "returns": {},
  "timestamp": 1716913964,
  "chain": 696969,
  "commit": "19f125e"
}