{
  "transactions": [
    {
      "hash": "0xda7d84310e33edacbbe43d7562598f0ff4b22f8f23251042e83976bb774a821f",
      "transactionType": "CALL",
      "contractName": null,
      "contractAddress": "0x815482f3cdd716f6dbefa7ff7e5050a79e841de9",
      "function": "startChat(address,string,string,string[])",
      "arguments": [
        "0x2dC8Bc53ECf1A59188e4c7fAB0c7bB57339F85e7",
        "\"You help users identify animals in images\"",
        "\"what animal is in these images\"",
        "[\"https://www.pexels.com/photo/curious-staffordshire-bull-terrier-17017823/\", \"https://www.pexels.com/photo/short-coated-dog-on-riverside-5158655/\", \"https://www.pexels.com/photo/a-staffordshire-bull-terrier-15020868/\"]"
      ],
      "transaction": {
        "from": "0x2dc8bc53ecf1a59188e4c7fab0c7bb57339f85e7",
        "to": "0x815482f3cdd716f6dbefa7ff7e5050a79e841de9",
        "gas": "0x115dd7",
        "value": "0x0",
        "input": "0xcbc305e00000000000000000000000002dc8bc53ecf1a59188e4c7fab0c7bb57339f85e7000000000000000000000000000000000000000000000000000000000000008000000000000000000000000000000000000000000000000000000000000000e000000000000000000000000000000000000000000000000000000000000001200000000000000000000000000000000000000000000000000000000000000029596f752068656c70207573657273206964656e7469667920616e696d616c7320696e20696d616765730000000000000000000000000000000000000000000000000000000000000000000000000000000000000000000000000000000000001e7768617420616e696d616c20697320696e20746865736520696d6167657300000000000000000000000000000000000000000000000000000000000000000003000000000000000000000000000000000000000000000000000000000000006000000000000000000000000000000000000000000000000000000000000000e00000000000000000000000000000000000000000000000000000000000000160000000000000000000000000000000000000000000000000000000000000004968747470733a2f2f7777772e706578656c732e636f6d2f70686f746f2f637572696f75732d73746166666f726473686972652d62756c6c2d746572726965722d31373031373832332f0000000000000000000000000000000000000000000000000000000000000000000000000000000000000000000000000000000000004368747470733a2f2f7777772e706578656c732e636f6d2f70686f746f2f73686f72742d636f617465642d646f672d6f6e2d7269766572736964652d353135383635352f0000000000000000000000000000000000000000000000000000000000000000000000000000000000000000000000000000000000000000000000004368747470733a2f2f7777772e706578656c732e636f6d2f70686f746f2f612d73746166666f726473686972652d62756c6c2d746572726965722d31353032303836382f0000000000000000000000000000000000000000000000000000000000",
        "nonce": "0x1",
        "chainId": "0xaa289"
      },
      "additionalContracts": [],
      "isFixedGasLimit": false
    }
  ],
  "receipts": [
    {
      "status": "0x1",
      "cumulativeGasUsed": "0x0",
      "logs": [
        {
          "address": "0x4168668812c94a3167fcd41d12014c5498d74d7e",
          "topics": [
            "0x3aaf9dab48b64f38cc49421a3c70996f1c5301326d0def0b47d1d7cfff333458",
            "0x0000000000000000000000000000000000000000000000000000000000001be3",
            "0x0000000000000000000000000000000000000000000000000000000000000000"
          ],
          "data": "0x000000000000000000000000815482f3cdd716f6dbefa7ff7e5050a79e841de9",
          "blockHash": "0x49d85b9f313fcd91b6019c7c43c51f7640531b59d58b5bfbbf9c3fb51f0d677c",
          "blockNumber": "0xd66bc3",
          "transactionHash": "0xda7d84310e33edacbbe43d7562598f0ff4b22f8f23251042e83976bb774a821f",
          "transactionIndex": "0x3",
          "logIndex": "0x0",
          "removed": false
        },
        {
          "address": "0x815482f3cdd716f6dbefa7ff7e5050a79e841de9",
          "topics": [
            "0xd1de2c4de50323207202f3df0bb1dec1a42e233aec245f25519d674c10bd72ca",
            "0x0000000000000000000000002dc8bc53ecf1a59188e4c7fab0c7bb57339f85e7",
            "0x0000000000000000000000000000000000000000000000000000000000000000"
          ],
          "data": "0x",
          "blockHash": "0x49d85b9f313fcd91b6019c7c43c51f7640531b59d58b5bfbbf9c3fb51f0d677c",
          "blockNumber": "0xd66bc3",
          "transactionHash": "0xda7d84310e33edacbbe43d7562598f0ff4b22f8f23251042e83976bb774a821f",
          "transactionIndex": "0x3",
          "logIndex": "0x1",
          "removed": false
        }
      ],
      "logsBloom": "0x00000000000000000000000000000000000000020000000000010000002000000000100000000000000004000000000000000000000000000000000000000000400000000000000000000080000100000000000000000000000000000000100000000000020000000000000000000800000020000000000000000000000000000000000000000000000000000000000000200000400000000000000000000000000000800000000000000000000000000000000000000000020000000000000000000000000000000000000000000000004000000000000000004000000020000000000000000000000008000000000001000000000000000000000000000000",
      "type": "0x0",
      "transactionHash": "0xda7d84310e33edacbbe43d7562598f0ff4b22f8f23251042e83976bb774a821f",
      "transactionIndex": "0x0",
      "blockHash": "0x49d85b9f313fcd91b6019c7c43c51f7640531b59d58b5bfbbf9c3fb51f0d677c",
      "blockNumber": "0xd66bc3",
      "gasUsed": "0xc92b6",
      "effectiveGasPrice": "0x3b9aca00",
      "from": "0x2dc8bc53ecf1a59188e4c7fab0c7bb57339f85e7",
      "to": "0x815482f3cdd716f6dbefa7ff7e5050a79e841de9",
      "contractAddress": "0x815482f3cdd716f6dbefa7ff7e5050a79e841de9"
    }
  ],
  "libraries": [],
  "pending": [],
  "returns": {},
  "timestamp": 1716913982,
  "chain": 696969,
  "commit": "19f125e"
}