{
  "transactions": [
    {
      "hash": "0x1ba0f635d52881e86beeb96888e92e94b75f860510914a43de9ab0d9a78277de",
      "transactionType": "CALL",
      "contractName": null,
      "contractAddress": "0x8c678839de8fb74d9c66b10df20feae79b2848d9",
      "function": "startChat(address,uint256,string,string,string[])",
      "arguments": [
        "0x2dC8Bc53ECf1A59188e4c7fAB0c7bB57339F85e7",
        "13",
        "\"You are an image expert\"",
        "\"What's in these images? Please ensure that you include the following text somewhere in your response 'valuation: 8.8923'\"",
        "[\"https://amplify-db6s1roouv0tm-dev-bra-mediasbucket5fdfde77-bktlwbdhkr1y.s3.ap-southeast-2.amazonaws.com/public/0x590A1ADd90cbC6a0B53346b2CF8a78ebdaC24f02/9b7018a5-b5f4-462f-9063-0b158d5c78ba/raw-images/frame_1.jpeg\", \"https://amplify-db6s1roouv0tm-dev-bra-mediasbucket5fdfde77-bktlwbdhkr1y.s3.ap-southeast-2.amazonaws.com/public/0x590A1ADd90cbC6a0B53346b2CF8a78ebdaC24f02/9b7018a5-b5f4-462f-9063-0b158d5c78ba/raw-images/frame_2.jpeg\", \"https://amplify-db6s1roouv0tm-dev-bra-mediasbucket5fdfde77-bktlwbdhkr1y.s3.ap-southeast-2.amazonaws.com/public/0x590A1ADd90cbC6a0B53346b2CF8a78ebdaC24f02/9b7018a5-b5f4-462f-9063-0b158d5c78ba/raw-images/frame_3.jpeg\", \"https://amplify-db6s1roouv0tm-dev-bra-mediasbucket5fdfde77-bktlwbdhkr1y.s3.ap-southeast-2.amazonaws.com/public/0x590A1ADd90cbC6a0B53346b2CF8a78ebdaC24f02/9b7018a5-b5f4-462f-9063-0b158d5c78ba/raw-images/frame_4.jpeg\", \"https://amplify-db6s1roouv0tm-dev-bra-mediasbucket5fdfde77-bktlwbdhkr1y.s3.ap-southeast-2.amazonaws.com/public/0x590A1ADd90cbC6a0B53346b2CF8a78ebdaC24f02/9b7018a5-b5f4-462f-9063-0b158d5c78ba/raw-images/frame_5.jpeg\", \"https://amplify-db6s1roouv0tm-dev-bra-mediasbucket5fdfde77-bktlwbdhkr1y.s3.ap-southeast-2.amazonaws.com/public/0x590A1ADd90cbC6a0B53346b2CF8a78ebdaC24f02/9b7018a5-b5f4-462f-9063-0b158d5c78ba/raw-images/frame_6.jpeg\", \"https://amplify-db6s1roouv0tm-dev-bra-mediasbucket5fdfde77-bktlwbdhkr1y.s3.ap-southeast-2.amazonaws.com/public/0x590A1ADd90cbC6a0B53346b2CF8a78ebdaC24f02/9b7018a5-b5f4-462f-9063-0b158d5c78ba/raw-images/frame_7.jpeg\", \"https://amplify-db6s1roouv0tm-dev-bra-mediasbucket5fdfde77-bktlwbdhkr1y.s3.ap-southeast-2.amazonaws.com/public/0x590A1ADd90cbC6a0B53346b2CF8a78ebdaC24f02/9b7018a5-b5f4-462f-9063-0b158d5c78ba/raw-images/frame_8.jpeg\", \"https://amplify-db6s1roouv0tm-dev-bra-mediasbucket5fdfde77-bktlwbdhkr1y.s3.ap-southeast-2.amazonaws.com/public/0x590A1ADd90cbC6a0B53346b2CF8a78ebdaC24f02/9b7018a5-b5f4-462f-9063-0b158d5c78ba/raw-images/frame_9.jpeg\"]"
      ],
      "transaction": {
        "from": "0x2dc8bc53ecf1a59188e4c7fab0c7bb57339f85e7",
        "to": "0x8c678839de8fb74d9c66b10df20feae79b2848d9",
        "gas": "0x52eb9b",
        "value": "0x0",
        "input": "0xc0f6c6c60000000000000000000000002dc8bc53ecf1a59188e4c7fab0c7bb57339f85e7000000000000000000000000000000000000000000000000000000000000000d00000000000000000000000000000000000000000000000000000000000000a000000000000000000000000000000000000000000000000000000000000000e000000000000000000000000000000000000000000000000000000000000001800000000000000000000000000000000000000000000000000000000000000017596f752061726520616e20696d61676520657870657274000000000000000000000000000000000000000000000000000000000000000000000000000000007857686174277320696e20746865736520696d616765733f20506c6561736520656e73757265207468617420796f7520696e636c7564652074686520666f6c6c6f77696e67207465787420736f6d65776865726520696e20796f757220726573706f6e7365202776616c756174696f6e3a20382e38393233270000000000000000000000000000000000000000000000000000000000000000000000000000000900000000000000000000000000000000000000000000000000000000000001200000000000000000000000000000000000000000000000000000000000000220000000000000000000000000000000000000000000000000000000000000032000000000000000000000000000000000000000000000000000000000000004200000000000000000000000000000000000000000000000000000000000000520000000000000000000000000000000000000000000000000000000000000062000000000000000000000000000000000000000000000000000000000000007200000000000000000000000000000000000000000000000000000000000000820000000000000000000000000000000000000000000000000000000000000092000000000000000000000000000000000000000000000000000000000000000d668747470733a2f2f616d706c6966792d6462367331726f6f757630746d2d6465762d6272612d6d65646961736275636b657435666466646537372d626b746c776264686b7231792e73332e61702d736f757468656173742d322e616d617a6f6e6177732e636f6d2f7075626c69632f3078353930413141446439306362433661304235333334366232434638613738656264614332346630322f39623730313861352d623566342d343632662d393036332d3062313538643563373862612f7261772d696d616765732f6672616d655f312e6a7065670000000000000000000000000000000000000000000000000000000000000000000000000000000000d668747470733a2f2f616d706c6966792d6462367331726f6f757630746d2d6465762d6272612d6d65646961736275636b657435666466646537372d626b746c776264686b7231792e73332e61702d736f757468656173742d322e616d617a6f6e6177732e636f6d2f7075626c69632f3078353930413141446439306362433661304235333334366232434638613738656264614332346630322f39623730313861352d623566342d343632662d393036332d3062313538643563373862612f7261772d696d616765732f6672616d655f322e6a7065670000000000000000000000000000000000000000000000000000000000000000000000000000000000d668747470733a2f2f616d706c6966792d6462367331726f6f757630746d2d6465762d6272612d6d65646961736275636b657435666466646537372d626b746c776264686b7231792e73332e61702d736f757468656173742d322e616d617a6f6e6177732e636f6d2f7075626c69632f3078353930413141446439306362433661304235333334366232434638613738656264614332346630322f39623730313861352d623566342d343632662d393036332d3062313538643563373862612f7261772d696d616765732f6672616d655f332e6a7065670000000000000000000000000000000000000000000000000000000000000000000000000000000000d668747470733a2f2f616d706c6966792d6462367331726f6f757630746d2d6465762d6272612d6d65646961736275636b657435666466646537372d626b746c776264686b7231792e73332e61702d736f757468656173742d322e616d617a6f6e6177732e636f6d2f7075626c69632f3078353930413141446439306362433661304235333334366232434638613738656264614332346630322f39623730313861352d623566342d343632662d393036332d3062313538643563373862612f7261772d696d616765732f6672616d655f342e6a7065670000000000000000000000000000000000000000000000000000000000000000000000000000000000d668747470733a2f2f616d706c6966792d6462367331726f6f757630746d2d6465762d6272612d6d65646961736275636b657435666466646537372d626b746c776264686b7231792e73332e61702d736f757468656173742d322e616d617a6f6e6177732e636f6d2f7075626c69632f3078353930413141446439306362433661304235333334366232434638613738656264614332346630322f39623730313861352d623566342d343632662d393036332d3062313538643563373862612f7261772d696d616765732f6672616d655f352e6a7065670000000000000000000000000000000000000000000000000000000000000000000000000000000000d668747470733a2f2f616d706c6966792d6462367331726f6f757630746d2d6465762d6272612d6d65646961736275636b657435666466646537372d626b746c776264686b7231792e73332e61702d736f757468656173742d322e616d617a6f6e6177732e636f6d2f7075626c69632f3078353930413141446439306362433661304235333334366232434638613738656264614332346630322f39623730313861352d623566342d343632662d393036332d3062313538643563373862612f7261772d696d616765732f6672616d655f362e6a7065670000000000000000000000000000000000000000000000000000000000000000000000000000000000d668747470733a2f2f616d706c6966792d6462367331726f6f757630746d2d6465762d6272612d6d65646961736275636b657435666466646537372d626b746c776264686b7231792e73332e61702d736f757468656173742d322e616d617a6f6e6177732e636f6d2f7075626c69632f3078353930413141446439306362433661304235333334366232434638613738656264614332346630322f39623730313861352d623566342d343632662d393036332d3062313538643563373862612f7261772d696d616765732f6672616d655f372e6a7065670000000000000000000000000000000000000000000000000000000000000000000000000000000000d668747470733a2f2f616d706c6966792d6462367331726f6f757630746d2d6465762d6272612d6d65646961736275636b657435666466646537372d626b746c776264686b7231792e73332e61702d736f757468656173742d322e616d617a6f6e6177732e636f6d2f7075626c69632f3078353930413141446439306362433661304235333334366232434638613738656264614332346630322f39623730313861352d623566342d343632662d393036332d3062313538643563373862612f7261772d696d616765732f6672616d655f382e6a7065670000000000000000000000000000000000000000000000000000000000000000000000000000000000d668747470733a2f2f616d706c6966792d6462367331726f6f757630746d2d6465762d6272612d6d65646961736275636b657435666466646537372d626b746c776264686b7231792e73332e61702d736f757468656173742d322e616d617a6f6e6177732e636f6d2f7075626c69632f3078353930413141446439306362433661304235333334366232434638613738656264614332346630322f39623730313861352d623566342d343632662d393036332d3062313538643563373862612f7261772d696d616765732f6672616d655f392e6a70656700000000000000000000",
        "nonce": "0x16",
        "chainId": "0xaa289"
      },
      "additionalContracts": [],
      "isFixedGasLimit": false
    }
  ],
  "receipts": [
    {
      "status": "0x1",
      "cumulativeGasUsed": "0x0",
      "logs": [
        {
          "address": "0x4168668812c94a3167fcd41d12014c5498d74d7e",
          "topics": [
            "0x3aaf9dab48b64f38cc49421a3c70996f1c5301326d0def0b47d1d7cfff333458",
            "0x0000000000000000000000000000000000000000000000000000000000002631",
            "0x0000000000000000000000000000000000000000000000000000000000000004"
          ],
          "data": "0x0000000000000000000000008c678839de8fb74d9c66b10df20feae79b2848d9",
          "blockHash": "0xd9fd0a1dbd86a73e1c940fe57bb6d8414d6b4314312c45b79cb39d4d15b7e96d",
          "blockNumber": "0xe38b75",
          "transactionHash": "0x1ba0f635d52881e86beeb96888e92e94b75f860510914a43de9ab0d9a78277de",
          "transactionIndex": "0x3",
          "logIndex": "0x0",
          "removed": false
        },
        {
          "address": "0x8c678839de8fb74d9c66b10df20feae79b2848d9",
          "topics": [
            "0xd1de2c4de50323207202f3df0bb1dec1a42e233aec245f25519d674c10bd72ca",
            "0x0000000000000000000000002dc8bc53ecf1a59188e4c7fab0c7bb57339f85e7",
            "0x0000000000000000000000000000000000000000000000000000000000000004"
          ],
          "data": "0x",
          "blockHash": "0xd9fd0a1dbd86a73e1c940fe57bb6d8414d6b4314312c45b79cb39d4d15b7e96d",
          "blockNumber": "0xe38b75",
          "transactionHash": "0x1ba0f635d52881e86beeb96888e92e94b75f860510914a43de9ab0d9a78277de",
          "transactionIndex": "0x3",
          "logIndex": "0x1",
          "removed": false
        }
      ],
      "logsBloom": "0x00000000080000000000000000000000000000000000000000010000002000000000100000000000000000000000000000000000000000000000000000000000000000000000000000000000000100000000010000000000000000000000100008000000000000000000000000000000000020000000000000000000000000000000000000000000000000000000008000000000400000001000000000000000000000800000000000000000000000000000000000000000002000000000040000000000000000000100000000000000004000008000000000004000000000000000000000000000000008000000000001000000000000000000000000000000",
      "type": "0x0",
      "transactionHash": "0x1ba0f635d52881e86beeb96888e92e94b75f860510914a43de9ab0d9a78277de",
      "transactionIndex": "0x0",
      "blockHash": "0xd9fd0a1dbd86a73e1c940fe57bb6d8414d6b4314312c45b79cb39d4d15b7e96d",
      "blockNumber": "0xe38b75",
      "gasUsed": "0x3c0868",
      "effectiveGasPrice": "0x3b9aca00",
      "from": "0x2dc8bc53ecf1a59188e4c7fab0c7bb57339f85e7",
      "to": "0x8c678839de8fb74d9c66b10df20feae79b2848d9",
      "contractAddress": "0x8c678839de8fb74d9c66b10df20feae79b2848d9"
    }
  ],
  "libraries": [],
  "pending": [],
  "returns": {},
  "timestamp": 1717275526,
  "chain": 696969,
  "commit": "0641c52"
}