{
  "transactions": [
    {
      "hash": "0x0063ffee49df1ad33cba119ed409e934962953d8a4bcf695e25f92c2b32319d9",
      "transactionType": "CALL",
      "contractName": null,
      "contractAddress": "0x815482f3cdd716f6dbefa7ff7e5050a79e841de9",
      "function": "startChat(address,string,string,string[])",
      "arguments": [
        "0x2dC8Bc53ECf1A59188e4c7fAB0c7bB57339F85e7",
        "\"You help users identify animals in images\"",
        "\"what animal is in these images\"",
        "[\"https://evm-poc-images.s3.eu-central-1.amazonaws.com/royal-tang/1.png\", \"https://evm-poc-images.s3.eu-central-1.amazonaws.com/royal-tang/2.png\", \"https://evm-poc-images.s3.eu-central-1.amazonaws.com/royal-tang/3.png\"]"
      ],
      "transaction": {
        "from": "0x2dc8bc53ecf1a59188e4c7fab0c7bb57339f85e7",
        "to": "0x815482f3cdd716f6dbefa7ff7e5050a79e841de9",
        "gas": "0x116cf3",
        "value": "0x0",
        "input": "0xcbc305e00000000000000000000000002dc8bc53ecf1a59188e4c7fab0c7bb57339f85e7000000000000000000000000000000000000000000000000000000000000008000000000000000000000000000000000000000000000000000000000000000e000000000000000000000000000000000000000000000000000000000000001200000000000000000000000000000000000000000000000000000000000000029596f752068656c70207573657273206964656e7469667920616e696d616c7320696e20696d616765730000000000000000000000000000000000000000000000000000000000000000000000000000000000000000000000000000000000001e7768617420616e696d616c20697320696e20746865736520696d6167657300000000000000000000000000000000000000000000000000000000000000000003000000000000000000000000000000000000000000000000000000000000006000000000000000000000000000000000000000000000000000000000000000e00000000000000000000000000000000000000000000000000000000000000160000000000000000000000000000000000000000000000000000000000000004568747470733a2f2f65766d2d706f632d696d616765732e73332e65752d63656e7472616c2d312e616d617a6f6e6177732e636f6d2f726f79616c2d74616e672f312e706e67000000000000000000000000000000000000000000000000000000000000000000000000000000000000000000000000000000000000000000004568747470733a2f2f65766d2d706f632d696d616765732e73332e65752d63656e7472616c2d312e616d617a6f6e6177732e636f6d2f726f79616c2d74616e672f322e706e67000000000000000000000000000000000000000000000000000000000000000000000000000000000000000000000000000000000000000000004568747470733a2f2f65766d2d706f632d696d616765732e73332e65752d63656e7472616c2d312e616d617a6f6e6177732e636f6d2f726f79616c2d74616e672f332e706e67000000000000000000000000000000000000000000000000000000",
        "nonce": "0x3",
        "chainId": "0xaa289"
      },
      "additionalContracts": [],
      "isFixedGasLimit": false
    }
  ],
  "receipts": [
    {
      "status": "0x1",
      "cumulativeGasUsed": "0x0",
      "logs": [
        {
          "address": "0x4168668812c94a3167fcd41d12014c5498d74d7e",
          "topics": [
            "0x3aaf9dab48b64f38cc49421a3c70996f1c5301326d0def0b47d1d7cfff333458",
            "0x0000000000000000000000000000000000000000000000000000000000001d5a",
            "0x0000000000000000000000000000000000000000000000000000000000000002"
          ],
          "data": "0x000000000000000000000000815482f3cdd716f6dbefa7ff7e5050a79e841de9",
          "blockHash": "0x8c4d8b63a1b8c38c077b197c319d8c1468c69d1f2029668d9eb56dde84324404",
          "blockNumber": "0xd9816a",
          "transactionHash": "0x0063ffee49df1ad33cba119ed409e934962953d8a4bcf695e25f92c2b32319d9",
          "transactionIndex": "0x0",
          "logIndex": "0x0",
          "removed": false
        },
        {
          "address": "0x815482f3cdd716f6dbefa7ff7e5050a79e841de9",
          "topics": [
            "0xd1de2c4de50323207202f3df0bb1dec1a42e233aec245f25519d674c10bd72ca",
            "0x0000000000000000000000002dc8bc53ecf1a59188e4c7fab0c7bb57339f85e7",
            "0x0000000000000000000000000000000000000000000000000000000000000002"
          ],
          "data": "0x",
          "blockHash": "0x8c4d8b63a1b8c38c077b197c319d8c1468c69d1f2029668d9eb56dde84324404",
          "blockNumber": "0xd9816a",
          "transactionHash": "0x0063ffee49df1ad33cba119ed409e934962953d8a4bcf695e25f92c2b32319d9",
          "transactionIndex": "0x0",
          "logIndex": "0x1",
          "removed": false
        }
      ],
      "logsBloom": "0x04000000000000000000000000000000000000020000000000010000002000000000100000000000000004000000000000000000000000000000000000000000000000000000000000000000000100000000000000000000000002000000100000000000000000000000000000000000000020000000080000000000000000000000000000000000000000000000000000200000400000000000000000000000000000800000000000000100000000000000000000000000000000000000800000000000000000000000000000000000004000000000000000004000000000000000000000000000000008000000000001000000008000000000000000000000",
      "type": "0x0",
      "transactionHash": "0x0063ffee49df1ad33cba119ed409e934962953d8a4bcf695e25f92c2b32319d9",
      "transactionIndex": "0x0",
      "blockHash": "0x8c4d8b63a1b8c38c077b197c319d8c1468c69d1f2029668d9eb56dde84324404",
      "blockNumber": "0xd9816a",
      "gasUsed": "0xc9da6",
      "effectiveGasPrice": "0x3b9aca00",
      "from": "0x2dc8bc53ecf1a59188e4c7fab0c7bb57339f85e7",
      "to": "0x815482f3cdd716f6dbefa7ff7e5050a79e841de9",
      "contractAddress": "0x815482f3cdd716f6dbefa7ff7e5050a79e841de9"
    }
  ],
  "libraries": [],
  "pending": [],
  "returns": {},
  "timestamp": 1716998792,
  "chain": 696969,
  "commit": "a028c2a"
}