{
  "transactions": [
    {
      "hash": "0xb10171fa78c4433138913d17630e5fe3ca0c680a56a5e0b39cc474cd7c71845c",
      "transactionType": "CALL",
      "contractName": null,
      "contractAddress": "0x8c678839de8fb74d9c66b10df20feae79b2848d9",
      "function": "startChat(address,uint256,string,string,string[])",
      "arguments": [
        "0x2dC8Bc53ECf1A59188e4c7fAB0c7bB57339F85e7",
        "13",
        "\"You help users identify animals in images\"",
        "\"are these fish? Please ensure that you include the following text somewhere in your response 'valuation: 8.8923'\"",
        "[\"https://evm-poc-images.s3.eu-central-1.amazonaws.com/royal-tang/1.png\", \"https://evm-poc-images.s3.eu-central-1.amazonaws.com/royal-tang/2.png\", \"https://evm-poc-images.s3.eu-central-1.amazonaws.com/royal-tang/3.png\", \"https://evm-poc-images.s3.eu-central-1.amazonaws.com/royal-tang/1.png\", \"https://evm-poc-images.s3.eu-central-1.amazonaws.com/royal-tang/2.png\", \"https://evm-poc-images.s3.eu-central-1.amazonaws.com/royal-tang/3.png\", \"https://evm-poc-images.s3.eu-central-1.amazonaws.com/royal-tang/1.png\", \"https://evm-poc-images.s3.eu-central-1.amazonaws.com/royal-tang/2.png\", \"https://evm-poc-images.s3.eu-central-1.amazonaws.com/royal-tang/3.png\", \"https://evm-poc-images.s3.eu-central-1.amazonaws.com/royal-tang/1.png\"]"
      ],
      "transaction": {
        "from": "0x2dc8bc53ecf1a59188e4c7fab0c7bb57339f85e7",
        "to": "0x8c678839de8fb74d9c66b10df20feae79b2848d9",
        "gas": "0x37ea73",
        "value": "0x0",
        "input": "0xc0f6c6c60000000000000000000000002dc8bc53ecf1a59188e4c7fab0c7bb57339f85e7000000000000000000000000000000000000000000000000000000000000000d00000000000000000000000000000000000000000000000000000000000000a0000000000000000000000000000000000000000000000000000000000000010000000000000000000000000000000000000000000000000000000000000001a00000000000000000000000000000000000000000000000000000000000000029596f752068656c70207573657273206964656e7469667920616e696d616c7320696e20696d616765730000000000000000000000000000000000000000000000000000000000000000000000000000000000000000000000000000000000007061726520746865736520666973683f20506c6561736520656e73757265207468617420796f7520696e636c7564652074686520666f6c6c6f77696e67207465787420736f6d65776865726520696e20796f757220726573706f6e7365202776616c756174696f6e3a20382e383932332700000000000000000000000000000000000000000000000000000000000000000000000000000000000000000000000a000000000000000000000000000000000000000000000000000000000000014000000000000000000000000000000000000000000000000000000000000001c0000000000000000000000000000000000000000000000000000000000000024000000000000000000000000000000000000000000000000000000000000002c0000000000000000000000000000000000000000000000000000000000000034000000000000000000000000000000000000000000000000000000000000003c0000000000000000000000000000000000000000000000000000000000000044000000000000000000000000000000000000000000000000000000000000004c0000000000000000000000000000000000000000000000000000000000000054000000000000000000000000000000000000000000000000000000000000005c0000000000000000000000000000000000000000000000000000000000000004568747470733a2f2f65766d2d706f632d696d616765732e73332e65752d63656e7472616c2d312e616d617a6f6e6177732e636f6d2f726f79616c2d74616e672f312e706e67000000000000000000000000000000000000000000000000000000000000000000000000000000000000000000000000000000000000000000004568747470733a2f2f65766d2d706f632d696d616765732e73332e65752d63656e7472616c2d312e616d617a6f6e6177732e636f6d2f726f79616c2d74616e672f322e706e67000000000000000000000000000000000000000000000000000000000000000000000000000000000000000000000000000000000000000000004568747470733a2f2f65766d2d706f632d696d616765732e73332e65752d63656e7472616c2d312e616d617a6f6e6177732e636f6d2f726f79616c2d74616e672f332e706e67000000000000000000000000000000000000000000000000000000000000000000000000000000000000000000000000000000000000000000004568747470733a2f2f65766d2d706f632d696d616765732e73332e65752d63656e7472616c2d312e616d617a6f6e6177732e636f6d2f726f79616c2d74616e672f312e706e67000000000000000000000000000000000000000000000000000000000000000000000000000000000000000000000000000000000000000000004568747470733a2f2f65766d2d706f632d696d616765732e73332e65752d63656e7472616c2d312e616d617a6f6e6177732e636f6d2f726f79616c2d74616e672f322e706e67000000000000000000000000000000000000000000000000000000000000000000000000000000000000000000000000000000000000000000004568747470733a2f2f65766d2d706f632d696d616765732e73332e65752d63656e7472616c2d312e616d617a6f6e6177732e636f6d2f726f79616c2d74616e672f332e706e67000000000000000000000000000000000000000000000000000000000000000000000000000000000000000000000000000000000000000000004568747470733a2f2f65766d2d706f632d696d616765732e73332e65752d63656e7472616c2d312e616d617a6f6e6177732e636f6d2f726f79616c2d74616e672f312e706e67000000000000000000000000000000000000000000000000000000000000000000000000000000000000000000000000000000000000000000004568747470733a2f2f65766d2d706f632d696d616765732e73332e65752d63656e7472616c2d312e616d617a6f6e6177732e636f6d2f726f79616c2d74616e672f322e706e67000000000000000000000000000000000000000000000000000000000000000000000000000000000000000000000000000000000000000000004568747470733a2f2f65766d2d706f632d696d616765732e73332e65752d63656e7472616c2d312e616d617a6f6e6177732e636f6d2f726f79616c2d74616e672f332e706e67000000000000000000000000000000000000000000000000000000000000000000000000000000000000000000000000000000000000000000004568747470733a2f2f65766d2d706f632d696d616765732e73332e65752d63656e7472616c2d312e616d617a6f6e6177732e636f6d2f726f79616c2d74616e672f312e706e67000000000000000000000000000000000000000000000000000000",
        "nonce": "0x15",
        "chainId": "0xaa289"
      },
      "additionalContracts": [],
      "isFixedGasLimit": false
    }
  ],
  "receipts": [
    {
      "status": "0x1",
      "cumulativeGasUsed": "0x0",
      "logs": [
        {
          "address": "0x4168668812c94a3167fcd41d12014c5498d74d7e",
          "topics": [
            "0x3aaf9dab48b64f38cc49421a3c70996f1c5301326d0def0b47d1d7cfff333458",
            "0x0000000000000000000000000000000000000000000000000000000000002439",
            "0x0000000000000000000000000000000000000000000000000000000000000003"
          ],
          "data": "0x0000000000000000000000008c678839de8fb74d9c66b10df20feae79b2848d9",
          "blockHash": "0xfa248a4583b8f91295e79f0ddc27c310a8a6a93b7bdc504c8e831a8eb719fe4f",
          "blockNumber": "0xe2b4c1",
          "transactionHash": "0xb10171fa78c4433138913d17630e5fe3ca0c680a56a5e0b39cc474cd7c71845c",
          "transactionIndex": "0x3",
          "logIndex": "0x0",
          "removed": false
        },
        {
          "address": "0x8c678839de8fb74d9c66b10df20feae79b2848d9",
          "topics": [
            "0xd1de2c4de50323207202f3df0bb1dec1a42e233aec245f25519d674c10bd72ca",
            "0x0000000000000000000000002dc8bc53ecf1a59188e4c7fab0c7bb57339f85e7",
            "0x0000000000000000000000000000000000000000000000000000000000000003"
          ],
          "data": "0x",
          "blockHash": "0xfa248a4583b8f91295e79f0ddc27c310a8a6a93b7bdc504c8e831a8eb719fe4f",
          "blockNumber": "0xe2b4c1",
          "transactionHash": "0xb10171fa78c4433138913d17630e5fe3ca0c680a56a5e0b39cc474cd7c71845c",
          "transactionIndex": "0x3",
          "logIndex": "0x1",
          "removed": false
        }
      ],
      "logsBloom": "0x01000000000000000000000000000000000000000000000000010000002000000000100000000000020000000000000000000000020000000000000000000000000000000000000000000000000100000000010000000000000000000000100000000000000000000000000000000000000020000000000000000000000000000000000000000000000000000000000000000000400000001000000000000000010000800000000000000000000000000000000000800000000000000000440000000000000000000000000000000000004000000000000000004000000000000000000000000000000008000000000001000000000000000000000000000000",
      "type": "0x0",
      "transactionHash": "0xb10171fa78c4433138913d17630e5fe3ca0c680a56a5e0b39cc474cd7c71845c",
      "transactionIndex": "0x0",
      "blockHash": "0xfa248a4583b8f91295e79f0ddc27c310a8a6a93b7bdc504c8e831a8eb719fe4f",
      "blockNumber": "0xe2b4c1",
      "gasUsed": "0x287b68",
      "effectiveGasPrice": "0x3b9aca00",
      "from": "0x2dc8bc53ecf1a59188e4c7fab0c7bb57339f85e7",
      "to": "0x8c678839de8fb74d9c66b10df20feae79b2848d9",
      "contractAddress": "0x8c678839de8fb74d9c66b10df20feae79b2848d9"
    }
  ],
  "libraries": [],
  "pending": [],
  "returns": {},
  "timestamp": 1717252378,
  "chain": 696969,
  "commit": "0641c52"
}