{
  "transactions": [
    {
      "hash": "0x56188b2c06ba9b1696877e3433cdf1ea107c9e574b0d8cea924a680603eba016",
      "transactionType": "CALL",
      "contractName": null,
      "contractAddress": "0xf00df8031e2e20f5334a3a4a0fbaad156b6e58c7",
      "function": "startChat(string,string[])",
      "arguments": [
        "\"what animal is in these images\"",
        "[\"https://evm-poc-images.s3.eu-central-1.amazonaws.com/royal-tang/1.png\", \"https://evm-poc-images.s3.eu-central-1.amazonaws.com/royal-tang/2.png\", \"https://evm-poc-images.s3.eu-central-1.amazonaws.com/royal-tang/3.png\"]"
      ],
      "transaction": {
        "from": "0x2dc8bc53ecf1a59188e4c7fab0c7bb57339f85e7",
        "to": "0xf00df8031e2e20f5334a3a4a0fbaad156b6e58c7",
        "gas": "0x10adc7",
        "value": "0x0",
        "input": "0xca3ce8d100000000000000000000000000000000000000000000000000000000000000400000000000000000000000000000000000000000000000000000000000000080000000000000000000000000000000000000000000000000000000000000001e7768617420616e696d616c20697320696e20746865736520696d6167657300000000000000000000000000000000000000000000000000000000000000000003000000000000000000000000000000000000000000000000000000000000006000000000000000000000000000000000000000000000000000000000000000e00000000000000000000000000000000000000000000000000000000000000160000000000000000000000000000000000000000000000000000000000000004568747470733a2f2f65766d2d706f632d696d616765732e73332e65752d63656e7472616c2d312e616d617a6f6e6177732e636f6d2f726f79616c2d74616e672f312e706e67000000000000000000000000000000000000000000000000000000000000000000000000000000000000000000000000000000000000000000004568747470733a2f2f65766d2d706f632d696d616765732e73332e65752d63656e7472616c2d312e616d617a6f6e6177732e636f6d2f726f79616c2d74616e672f322e706e67000000000000000000000000000000000000000000000000000000000000000000000000000000000000000000000000000000000000000000004568747470733a2f2f65766d2d706f632d696d616765732e73332e65752d63656e7472616c2d312e616d617a6f6e6177732e636f6d2f726f79616c2d74616e672f332e706e67000000000000000000000000000000000000000000000000000000",
        "nonce": "0x6",
        "chainId": "0xaa289"
      },
      "additionalContracts": [],
      "isFixedGasLimit": false
    }
  ],
  "receipts": [
    {
      "status": "0x1",
      "cumulativeGasUsed": "0x0",
      "logs": [
        {
          "address": "0x4168668812c94a3167fcd41d12014c5498d74d7e",
          "topics": [
            "0x3aaf9dab48b64f38cc49421a3c70996f1c5301326d0def0b47d1d7cfff333458",
            "0x0000000000000000000000000000000000000000000000000000000000001e89",
            "0x0000000000000000000000000000000000000000000000000000000000000000"
          ],
          "data": "0x000000000000000000000000f00df8031e2e20f5334a3a4a0fbaad156b6e58c7",
          "blockHash": "0x437280ee7db4229425366e40951f09016fdd2826efa3ad67bd4ceff3391a7bcb",
          "blockNumber": "0xdbede8",
          "transactionHash": "0x56188b2c06ba9b1696877e3433cdf1ea107c9e574b0d8cea924a680603eba016",
          "transactionIndex": "0x0",
          "logIndex": "0x0",
          "removed": false
        },
        {
          "address": "0xf00df8031e2e20f5334a3a4a0fbaad156b6e58c7",
          "topics": [
            "0xd1de2c4de50323207202f3df0bb1dec1a42e233aec245f25519d674c10bd72ca",
            "0x0000000000000000000000002dc8bc53ecf1a59188e4c7fab0c7bb57339f85e7",
            "0x0000000000000000000000000000000000000000000000000000000000000000"
          ],
          "data": "0x",
          "blockHash": "0x437280ee7db4229425366e40951f09016fdd2826efa3ad67bd4ceff3391a7bcb",
          "blockNumber": "0xdbede8",
          "transactionHash": "0x56188b2c06ba9b1696877e3433cdf1ea107c9e574b0d8cea924a680603eba016",
          "transactionIndex": "0x0",
          "logIndex": "0x1",
          "removed": false
        }
      ],
      "logsBloom": "0x00000000000000000000000000000000000000000000000000010000002000000000100000000000000000000000000120000000000000000000000000000000000000000000000020000000000100000000000000000000000000000000100000000000020000000000000000000800000020000000000000000000000000000000000000000000000000000000000000000000400000000000000000020000000000800000000000000000000000000000000000000000000000000000000000000000000000000000000000000000004000000000000004004000000020000000000000000000000008000000000001000000000000000002000000000000",
      "type": "0x0",
      "transactionHash": "0x56188b2c06ba9b1696877e3433cdf1ea107c9e574b0d8cea924a680603eba016",
      "transactionIndex": "0x0",
      "blockHash": "0x437280ee7db4229425366e40951f09016fdd2826efa3ad67bd4ceff3391a7bcb",
      "blockNumber": "0xdbede8",
      "gasUsed": "0xc133f",
      "effectiveGasPrice": "0x3b9aca00",
      "from": "0x2dc8bc53ecf1a59188e4c7fab0c7bb57339f85e7",
      "to": "0xf00df8031e2e20f5334a3a4a0fbaad156b6e58c7",
      "contractAddress": "0xf00df8031e2e20f5334a3a4a0fbaad156b6e58c7"
    }
  ],
  "libraries": [],
  "pending": [],
  "returns": {},
  "timestamp": 1717065471,
  "chain": 696969,
  "commit": "55dec17"
}